:1000000033C00000189500001895000018950000F6
:10001000189500001895000018950000189500002C
:10002000189500001895000018950000189500001C
:10003000189500001895000018950000189500000C
:1000400018950000189500001895000018950000FC
:1000500018950000189500001895000018950000EC
:10006000189500001895000000E004B905B907B91B
:1000700008B90AB90BB905BB0DBB04BD05BD06BD6A
:1000800007BD08BD0CBD0DBD11E013BF05BF1FEEC0
:10009000109364000093690000936E000093780051
:1000A0000093790000937A0000937B0000937C001A
:1000B00000937E000093B8000093B9001EEF1093E8
:1000C000BA000093BC000093BD000093C0000093F1
:1000D000C10016E01093C2000093C4000093C50055
:1000E00011E015BF10E015BF10E81093610011E09A
:1000F000109361001FEF1DBF18E01EBF0FBF00C0AF
:100100001124229A85E580930001809302018AEAF6
:10011000809301018093030153D0FECF0F934F933F
:100120008F930FB7862F07D08F9105D08F9103D073
:100130000FBF0F91089568E0880F30F02A9A0000F1
:100140002A980000000007C02A9A00000000000062
:1001500000002A9800006A9579F7089500000000D1
:100160000000000008950F931F932F9321E010E0EB
:1001700000E00A95F1F71A95E1F72A95D1F72F914A
:100180001F910F910895E0E0F1E080819181A281BB
:10019000B38148E0682F82FB70F9672786FB70F90E
:1001A000672787FB70F967276795B795A795979598
:1001B00087954A9579F780839183A283B3830895C5
:1001C000CF93DF93CDB7DEB72C970FB6F894DEBF91
:1001D0000FBECDBF19821D82198680E09E01235F6C
:1001E0003F4F3901AE01405F5F4F2A01FE0131965A
:1001F0004F019E012E5F3F4F5901AE014D5F5F4F92
:100200006A018E010C5F1F4F7801882399F18E3FA0
:1002100009F04EC00E94C300F40180830E94C30015
:10022000382EF50180830E94C300282EF6018083BA
:100230000E94C300F7018083222D30E0230D311D81
:10024000A901480F511DCA01803891403CF3F4E0E8
:100250008F0E911C24E0A20EB11C34E0C30ED11C01
:1002600044E0E40EF11C8614970471F0F4018081DF
:100270008111CDCF2FEFF5012083F6012083F70107
:100280002083F4012083E3CFD8011197C80102979E
:10029000F80140816C91FC0180810E948E000C5F0E
:1002A0001F4F0415150581F70E94B30089819ECF69
:0802B0008150F4018083CBCFE3
:00000001FF
