:1000000012C0189518951895189518951895189563
:100010001895189518951895189518951895189578
:1000200018951895189500E000B901B91EEF12B99E
:1000300009B90AB90BB90DB90EB901BB02BB04BBB2
:1000400005BB07BB08BB00BD16E810BD02BF03BF60
:1000500005BF06BF08BF09BF0BBF1FE51DBF14E0EA
:100060001EBF0FBF00C01124BA9A85E580936000BF
:10007000809362008AEA809361008093630053D08A
:10008000FECF0F934F938F930FB7862F07D08F918B
:1000900005D08F9103D00FBF0F91089568E0880FAE
:1000A00030F0C29A0000C2980000000007C0C29A57
:1000B0000000000000000000C29800006A9579F777
:1000C0000895000000000000000008950F931F93A2
:1000D0002F9321E010E000E00A95F1F71A95E1F77F
:1000E0002A95D1F72F911F910F910895E0E6F0E046
:1000F00080819181A281B38148E0682F82FB70F9F1
:10010000672786FB70F9672787FB70F96727679574
:10011000B795A795979587954A9579F780839183A9
:10012000A283B3830895CF93DF93CDB7DEB72C9727
:100130000FB6F894DEBF0FBECDBF19821D8219869F
:1001400080E09E01235F3F4F3901AE01405F5F4F6A
:100150002A01FE0131964F019E012E5F3F4F59014A
:10016000AE014D5F5F4F6A018E010C5F1F4F78013A
:10017000882379F18E3F09F048C0B8DFF40180830D
:10018000B5DF382EF5018083B1DF282EF60180839C
:10019000ADDFF7018083222D30E0230D311DA90151
:1001A000480F511DCA018038914054F3F4E08F0E7E
:1001B000911C24E0A20EB11C34E0C30ED11C44E01B
:1001C000E40EF11C8614970471F0F4018081811112
:1001D000D1CF2FEFF5012083F6012083F701208393
:1001E000F4012083E3CFD8011197C8010297F801E9
:1001F00040816C91FC01808144DF0C5F1F4F04152E
:10020000150589F763DF8981A4CF8150F4018083CC
:02021000CDCF50
:00000001FF
