:100000000EC0189518951895189518951895189567
:10001000189518951895189518951895189500E045
:1000200003B904B905B906B907B90DB90EB904BBCE
:1000300007BB08BB1FE010BD08BD09BD0ABD0FBD51
:1000400000BF02BF03BF10E215BF08BF09BF0BBF4F
:1000500010E816BD10E016BD1FE51DBF11E01EBF64
:100060000FBF00C01124B89A85E58093600080938B
:1000700062008AEA80936100809363005ED0FECFC5
:100080000F934F938F930FB7862F07D08F9105D083
:100090008F9103D00FBF0F91089568E0880F58F03B
:1000A000C09A0000000000000000C098000000009E
:1000B000000000000DC0C09A000000000000000019
:1000C00000000000000000000000C09800000000D8
:1000D0006A9521F7089500000000000000000895CF
:1000E0000F931F932F9321E010E000E00A95F1F7A2
:1000F0001A95E1F72A95D1F72F911F910F91089545
:10010000E0E6F0E080819181A281B38148E0682F30
:1001100082FB70F9672786FB70F9672787FB70F908
:1001200067276795B795A795979587954A9579F726
:1001300080839183A283B3830895CF93DF93CDB758
:10014000DEB72C970FB6F894DEBF0FBECDBF198275
:100150001D82198680E09E01235F3F4F3901AE0169
:10016000405F5F4F2A01FE0131964F019E012E5FD5
:100170003F4F5901AE014D5F5F4F6A018E010C5F29
:100180001F4F7801882379F18E3F09F048C0B8DF0E
:10019000F4018083B5DF382EF5018083B1DF282E8E
:1001A000F6018083ADDFF7018083222D30E0230D3F
:1001B000311DA901480F511DCA018038914054F3E7
:1001C000F4E08F0E911C24E0A20EB11C34E0C30EAB
:1001D000D11C44E0E40EF11C8614970471F0F40184
:1001E00080818111D1CF2FEFF5012083F60120838B
:1001F000F7012083F4012083E3CFD8011197C801D0
:100200000297F80140816C91FC01808139DF0C5F1D
:100210001F4F0415150589F763DF8981A4CF81502D
:06022000F4018083CDCF44
:00000001FF
